{
  "contractName": "Renting",
  "abi": [
    {
      "anonymous": false,
      "inputs": [],
      "name": "CreatedCarEvent",
      "type": "event"
    },
    {
      "anonymous": false,
      "inputs": [],
      "name": "CreatedFreeEvent",
      "type": "event"
    },
    {
      "anonymous": false,
      "inputs": [],
      "name": "CreatedRemoveEvent",
      "type": "event"
    },
    {
      "anonymous": false,
      "inputs": [],
      "name": "CreatedRentEvent",
      "type": "event"
    },
    {
      "constant": true,
      "inputs": [
        {
          "internalType": "uint256",
          "name": "",
          "type": "uint256"
        }
      ],
      "name": "cars",
      "outputs": [
        {
          "internalType": "address payable",
          "name": "owner",
          "type": "address"
        },
        {
          "internalType": "address",
          "name": "rentedBy",
          "type": "address"
        },
        {
          "internalType": "string",
          "name": "description",
          "type": "string"
        },
        {
          "internalType": "uint256",
          "name": "price",
          "type": "uint256"
        },
        {
          "internalType": "uint256",
          "name": "rentingTime",
          "type": "uint256"
        },
        {
          "internalType": "bool",
          "name": "available",
          "type": "bool"
        }
      ],
      "payable": false,
      "stateMutability": "view",
      "type": "function"
    },
    {
      "constant": true,
      "inputs": [],
      "name": "getNumCars",
      "outputs": [
        {
          "internalType": "uint256",
          "name": "",
          "type": "uint256"
        }
      ],
      "payable": false,
      "stateMutability": "view",
      "type": "function"
    },
    {
      "constant": true,
      "inputs": [
        {
          "internalType": "uint256",
          "name": "pos",
          "type": "uint256"
        }
      ],
      "name": "getCar",
      "outputs": [
        {
          "internalType": "uint256",
          "name": "",
          "type": "uint256"
        },
        {
          "internalType": "address",
          "name": "",
          "type": "address"
        },
        {
          "internalType": "string",
          "name": "",
          "type": "string"
        },
        {
          "internalType": "uint256",
          "name": "",
          "type": "uint256"
        },
        {
          "internalType": "bool",
          "name": "",
          "type": "bool"
        },
        {
          "internalType": "address",
          "name": "",
          "type": "address"
        }
      ],
      "payable": false,
      "stateMutability": "view",
      "type": "function"
    },
    {
      "constant": false,
      "inputs": [
        {
          "internalType": "string",
          "name": "_description",
          "type": "string"
        },
        {
          "internalType": "uint256",
          "name": "_price",
          "type": "uint256"
        }
      ],
      "name": "addCar",
      "outputs": [
        {
          "internalType": "bool",
          "name": "",
          "type": "bool"
        }
      ],
      "payable": false,
      "stateMutability": "nonpayable",
      "type": "function"
    },
    {
      "constant": false,
      "inputs": [
        {
          "internalType": "uint256",
          "name": "pos",
          "type": "uint256"
        }
      ],
      "name": "rentCar",
      "outputs": [
        {
          "internalType": "bool",
          "name": "",
          "type": "bool"
        }
      ],
      "payable": false,
      "stateMutability": "nonpayable",
      "type": "function"
    },
    {
      "constant": false,
      "inputs": [
        {
          "internalType": "uint256",
          "name": "pos",
          "type": "uint256"
        }
      ],
      "name": "freeCar",
      "outputs": [
        {
          "internalType": "bool",
          "name": "",
          "type": "bool"
        }
      ],
      "payable": true,
      "stateMutability": "payable",
      "type": "function"
    },
    {
      "constant": false,
      "inputs": [],
      "name": "withdrawEarnings",
      "outputs": [],
      "payable": true,
      "stateMutability": "payable",
      "type": "function"
    },
    {
      "constant": false,
      "inputs": [
        {
          "internalType": "uint256",
          "name": "pos",
          "type": "uint256"
        }
      ],
      "name": "removeCar",
      "outputs": [
        {
          "internalType": "bool",
          "name": "",
          "type": "bool"
        }
      ],
      "payable": false,
      "stateMutability": "nonpayable",
      "type": "function"
    }
  ],
  "bytecode": "0x608060405234801561001057600080fd5b50611204806100206000396000f3fe60806040526004361061007b5760003560e01c8063cd703ed71161004e578063cd703ed7146102fa578063cde9835214610325578063e1e8aab71461036b578063f7746e36146103be5761007b565b80635e8be190146100805780636a38ddb3146101b3578063965ac0c514610206578063b73c6ce9146102f0575b600080fd5b34801561008c57600080fd5b506100b9600480360360208110156100a357600080fd5b81019080803590602001909291905050506104f1565b604051808781526020018673ffffffffffffffffffffffffffffffffffffffff1673ffffffffffffffffffffffffffffffffffffffff16815260200180602001858152602001841515151581526020018373ffffffffffffffffffffffffffffffffffffffff1673ffffffffffffffffffffffffffffffffffffffff168152602001828103825286818151815260200191508051906020019080838360005b83811015610173578082015181840152602081019050610158565b50505050905090810190601f1680156101a05780820380516001836020036101000a031916815260200191505b5097505050505050505060405180910390f35b3480156101bf57600080fd5b506101ec600480360360208110156101d657600080fd5b8101908080359060200190929190505050610634565b604051808215151515815260200191505060405180910390f35b34801561021257600080fd5b506102d66004803603604081101561022957600080fd5b810190808035906020019064010000000081111561024657600080fd5b82018360208201111561025857600080fd5b8035906020019184600183028401116401000000008311171561027a57600080fd5b91908080601f016020809104026020016040519081016040528093929190818152602001838380828437600081840152601f19601f820116905080830192505050505050509192919290803590602001909291905050506108a9565b604051808215151515815260200191505060405180910390f35b6102f8610a61565b005b34801561030657600080fd5b5061030f610ab8565b6040518082815260200191505060405180910390f35b6103516004803603602081101561033b57600080fd5b8101908080359060200190929190505050610ac4565b604051808215151515815260200191505060405180910390f35b34801561037757600080fd5b506103a46004803603602081101561038e57600080fd5b8101908080359060200190929190505050610c7e565b604051808215151515815260200191505060405180910390f35b3480156103ca57600080fd5b506103f7600480360360208110156103e157600080fd5b8101908080359060200190929190505050610df6565b604051808773ffffffffffffffffffffffffffffffffffffffff1673ffffffffffffffffffffffffffffffffffffffff1681526020018673ffffffffffffffffffffffffffffffffffffffff1673ffffffffffffffffffffffffffffffffffffffff1681526020018060200185815260200184815260200183151515158152602001828103825286818151815260200191508051906020019080838360005b838110156104b1578082015181840152602081019050610496565b50505050905090810190601f1680156104de5780820380516001836020036101000a031916815260200191505b5097505050505050505060405180910390f35b60008060606000806000806000888154811061050957fe5b90600052602060002090600602019050878160000160009054906101000a900473ffffffffffffffffffffffffffffffffffffffff168260020183600301548460050160009054906101000a900460ff168560010160009054906101000a900473ffffffffffffffffffffffffffffffffffffffff16849450838054600181600116156101000203166002900480601f0160208091040260200160405190810160405280929190818152602001828054600181600116156101000203166002900480156106175780601f106105ec57610100808354040283529160200191610617565b820191906000526020600020905b8154815290600101906020018083116105fa57829003601f168201915b505050505093509650965096509650965096505091939550919395565b60008080549050821061064a57600090506108a4565b60008290505b6001600080549050038110156107e0576000600182018154811061067057fe5b90600052602060002090600602016000828154811061068b57fe5b90600052602060002090600602016000820160009054906101000a900473ffffffffffffffffffffffffffffffffffffffff168160000160006101000a81548173ffffffffffffffffffffffffffffffffffffffff021916908373ffffffffffffffffffffffffffffffffffffffff1602179055506001820160009054906101000a900473ffffffffffffffffffffffffffffffffffffffff168160010160006101000a81548173ffffffffffffffffffffffffffffffffffffffff021916908373ffffffffffffffffffffffffffffffffffffffff1602179055506002820181600201908054600181600116156101000203166002900461078e929190610f24565b5060038201548160030155600482015481600401556005820160009054906101000a900460ff168160050160006101000a81548160ff0219169083151502179055509050508080600101915050610650565b506000600160008054905003815481106107f657fe5b9060005260206000209060060201600080820160006101000a81549073ffffffffffffffffffffffffffffffffffffffff02191690556001820160006101000a81549073ffffffffffffffffffffffffffffffffffffffff02191690556002820160006108639190610fab565b600382016000905560048201600090556005820160006101000a81549060ff02191690555050600080548091906001900361089e9190610ff3565b50600190505b919050565b60006108b3611025565b7f6c2777d27cad67b3a8219fd2368751fdf588e4f228358e5ea6093bfeb475cbc060405160405180910390a133816000019073ffffffffffffffffffffffffffffffffffffffff16908173ffffffffffffffffffffffffffffffffffffffff16815250508381604001819052508281606001818152505060018160a001901515908115158152505060008160800181815250506000819080600181540180825580915050906001820390600052602060002090600602016000909192909190915060008201518160000160006101000a81548173ffffffffffffffffffffffffffffffffffffffff021916908373ffffffffffffffffffffffffffffffffffffffff16021790555060208201518160010160006101000a81548173ffffffffffffffffffffffffffffffffffffffff021916908373ffffffffffffffffffffffffffffffffffffffff1602179055506040820151816002019080519060200190610a1e929190611089565b50606082015181600301556080820151816004015560a08201518160050160006101000a81548160ff021916908315150217905550505050600191505092915050565b6000678ac7230489e8000090503373ffffffffffffffffffffffffffffffffffffffff166108fc829081150290604051600060405180830381858888f19350505050158015610ab4573d6000803e3d6000fd5b5050565b60008080549050905090565b60003373ffffffffffffffffffffffffffffffffffffffff1660008381548110610aea57fe5b906000526020600020906006020160010160009054906101000a900473ffffffffffffffffffffffffffffffffffffffff1673ffffffffffffffffffffffffffffffffffffffff1614610b3c57600080fd5b6000151560008381548110610b4d57fe5b906000526020600020906006020160050160009054906101000a900460ff1615151415610c74576000808381548110610b8257fe5b9060005260206000209060060201905060018160050160006101000a81548160ff02191690831515021790555060008381548110610bbc57fe5b906000526020600020906006020160000160009054906101000a900473ffffffffffffffffffffffffffffffffffffffff1673ffffffffffffffffffffffffffffffffffffffff166108fc349081150290604051600060405180830381858888f19350505050158015610c33573d6000803e3d6000fd5b50600081600401819055507fa9b43d6eeff7d8330a0ce63cf385e51e3d60a7603607244b067dcff3d810eba860405160405180910390a16001915050610c79565b600090505b919050565b60003373ffffffffffffffffffffffffffffffffffffffff1660008381548110610ca457fe5b906000526020600020906006020160000160009054906101000a900473ffffffffffffffffffffffffffffffffffffffff1673ffffffffffffffffffffffffffffffffffffffff161415610cf757600080fd5b6001151560008381548110610d0857fe5b906000526020600020906006020160050160009054906101000a900460ff1615151415610dec576000808381548110610d3d57fe5b9060005260206000209060060201905060008160050160006101000a81548160ff021916908315150217905550338160010160006101000a81548173ffffffffffffffffffffffffffffffffffffffff021916908373ffffffffffffffffffffffffffffffffffffffff1602179055504281600401819055507ffc18d4ecf81ee2447943bcee29d252e91361d81fb5dd02e84d0099003fa5760e60405160405180910390a16001915050610df1565b600090505b919050565b60008181548110610e0357fe5b90600052602060002090600602016000915090508060000160009054906101000a900473ffffffffffffffffffffffffffffffffffffffff16908060010160009054906101000a900473ffffffffffffffffffffffffffffffffffffffff1690806002018054600181600116156101000203166002900480601f016020809104026020016040519081016040528092919081815260200182805460018160011615610100020316600290048015610efb5780601f10610ed057610100808354040283529160200191610efb565b820191906000526020600020905b815481529060010190602001808311610ede57829003601f168201915b5050505050908060030154908060040154908060050160009054906101000a900460ff16905086565b828054600181600116156101000203166002900490600052602060002090601f016020900481019282601f10610f5d5780548555610f9a565b82800160010185558215610f9a57600052602060002091601f016020900482015b82811115610f99578254825591600101919060010190610f7e565b5b509050610fa79190611109565b5090565b50805460018160011615610100020316600290046000825580601f10610fd15750610ff0565b601f016020900490600052602060002090810190610fef9190611109565b5b50565b8154818355818111156110205760060281600602836000526020600020918201910161101f919061112e565b5b505050565b6040518060c00160405280600073ffffffffffffffffffffffffffffffffffffffff168152602001600073ffffffffffffffffffffffffffffffffffffffff1681526020016060815260200160008152602001600081526020016000151581525090565b828054600181600116156101000203166002900490600052602060002090601f016020900481019282601f106110ca57805160ff19168380011785556110f8565b828001600101855582156110f8579182015b828111156110f75782518255916020019190600101906110dc565b5b5090506111059190611109565b5090565b61112b91905b8082111561112757600081600090555060010161110f565b5090565b90565b6111cc91905b808211156111c857600080820160006101000a81549073ffffffffffffffffffffffffffffffffffffffff02191690556001820160006101000a81549073ffffffffffffffffffffffffffffffffffffffff021916905560028201600061119b9190610fab565b600382016000905560048201600090556005820160006101000a81549060ff021916905550600601611134565b5090565b9056fea265627a7a72315820708a867c14337ff97b9607cbb09589333f0c6c9a3e4b534ebf6ef6af8811fb7964736f6c63430005100032",
  "source": "pragma solidity >=0.4.21 <0.6.0;\n\ncontract Renting {\n    struct Car {\n        address payable owner;\n        address rentedBy;\n        string description;\n        uint price;\n        uint rentingTime;\n        bool available;\n    }\n\n    Car[] public cars;\n\n    event CreatedCarEvent();\n    event CreatedRentEvent();\n    event CreatedFreeEvent();\n    event CreatedRemoveEvent();\n\n    function getNumCars() public view returns (uint) {\n        return cars.length;\n    }\n\n    // returns owner address, car description, price, available\n    function getCar(uint pos) public view returns (uint, address, string memory, uint, bool, address) {\n        Car storage c = cars[pos];\n        return (pos, c.owner, c.description, c.price, c.available, c.rentedBy);\n    }\n\n    function addCar(string memory _description, uint _price) public returns (bool) {\n        Car memory car;\n        emit CreatedCarEvent();\n\n        car.owner = msg.sender;\n        car.description = _description;\n        car.price = _price;\n        car.available = true;\n        car.rentingTime = 0;\n\n        cars.push(car);\n\n        return true;\n    }\n\n    function rentCar(uint pos) public returns (bool) {\n        require(cars[pos].owner != msg.sender);\n        if (cars[pos].available == true) {\n            Car storage c = cars[pos];\n            c.available = false;\n            c.rentedBy = msg.sender;\n            c.rentingTime = now;\n            emit CreatedRentEvent();\n            return true;\n        }\n\n        return false;\n    }\n\n    function freeCar(uint pos) public payable returns (bool) {\n        require(cars[pos].rentedBy == msg.sender);\n        if (cars[pos].available == false) {\n            Car storage c = cars[pos];\n            c.available = true;\n\n            cars[pos].owner.transfer(msg.value);\n\n            c.rentingTime = 0;\n            emit CreatedFreeEvent();\n            return true;\n        }\n        return false;\n    }\n\n    function withdrawEarnings() public payable {\n        uint amount = 10 * 10 ** 18; // 10 eth\n        msg.sender.transfer(amount);\n    }\n\n    function removeCar(uint pos) public returns (bool) {\n        if (pos >= cars.length) {\n            return false;\n        }\n\n        for (uint i = pos; i < cars.length - 1; i++){\n            cars[i] = cars[i+1];\n        }\n\n        delete cars[cars.length - 1];\n        cars.length--;\n\n        return true;\n    }\n}\n",
  "sourcePath": "/home/sayedrizwan/Documents/BlochChainProjects/RentCarBlockchain-master/contracts/Renting.sol",
  "compiler": {
    "name": "solc",
    "version": "0.5.16+commit.9c3226ce.Emscripten.clang"
  },
  "schemaVersion": "3.4.6",
  "updatedAt": "2022-03-28T10:56:05.991Z",
  "networkType": "ethereum",
  "devdoc": {
    "methods": {}
  },
  "userdoc": {
    "methods": {}
  }
}